:100000000C9434000C946C000C946C000C946C00F8
:100010000C946C000C946C000C946C000C946C00B0
:100020000C946C000C946C000C946C000C946C00A0
:100030000C946C000C946C000C946C000C946C0090
:100040000C946C000C946C000C946C000C946C0080
:100050000C946C000C946C000C946C000C946C0070
:100060000C946C000C946C0011241FBECFEFD8E0F0
:10007000DEBFCDBF0E9440000C943E00F894FFCF3D
:100080000E94600015B885E40E946700C4E0C5B90D
:100090002FEF81EE94E0215080409040E1F700C0C6
:1000A000000015B880E00E946700C5B92FEF81EE0F
:1000B00094E0215080409040E1F700C00000E2CF82
:0E00C0008CE284B981E58CBD84E085B9089599
:0A00CE008EBD0DB407FEFDCF0895AE
:0400D8000C94000084
:00000001FF
