:100000000C9434000C9452000C9452000C94520046
:100010000C9452000C9452000C9452000C94520018
:100020000C9452000C9452000C9452000C94520008
:100030000C9452000C9452000C9452000C945200F8
:100040000C9452000C9452000C9452000C945200E8
:100050000C9452000C9452000C9452000C945200D8
:100060000C9452000C94520011241FBECFEFD8E024
:10007000DEBFCDBF0E9447000C943E00F894FFCF36
:0E00800080E184B980E48CBD81E08AB90895E6
:0C008E000E9440000E944D008BB9FCCF86
:0A009A000DB407FEFDCF8EB50895EA
:0400A4000C940000B8
:00000001FF
